:020000040800F2
:1000000000000220AD190008990600089B060008B0
:100010009D0600089F060008A106000800000000D9
:10002000000000000000000000000000A30600081F
:10003000A506000800000000A7060008A9060008A1
:10004000FD190008FD190008FD190008FD19000838
:10005000FD190008FD190008FD190008FD19000828
:10006000FD190008FD190008FD190008FD19000818
:10007000FD190008FD190008FD190008FD19000808
:10008000FD190008FD190008FD190008FD190008F8
:10009000FD190008FD190008FD190008FD190008E8
:1000A000FD190008FD190008FD190008FD190008D8
:1000B000FD190008FD190008FD190008FD190008C8
:1000C000FD190008FD190008FD190008FD190008B8
:1000D000FD190008FD190008FD190008FD190008A8
:1000E000FD190008FD190008FD190008FD19000898
:1000F000FD190008FD190008FD190008FD19000888
:10010000FD190008FD190008FD190008FD19000877
:10011000FD190008FD190008FD190008FD19000867
:10012000FD190008FD190008FD190008FD19000857
:10013000FD190008FD190008FD190008FD19000847
:10014000FD190008FD190008FD190008FD19000837
:10015000FD190008FD190008FD190008FD19000827
:10016000FD190008FD190008FD190008FD19000817
:10017000FD190008FD190008FD190008FD19000807
:10018000FD190008FD190008FD190008FD190008F7
:10019000FD19000800000000FD190008FD19000805
:1001A000FD190008FD190008FD190008FD190008D7
:1001B000FD190008FD190008FD190008FD190008C7
:1001C000FD190008FD190008FD190008FD190008B7
:0801D000FD190008FD190008EB
:1001D8000348044B834202D0034B03B118477047CE
:1001E8000C0000200C000020000000000548064913
:1001F8000B1AD90F01EBA301491002D0034B03B12D
:10020800184770470C0000200C0000200000000078
:1002180010B5064C237843B9FFF7DAFF044B13B146
:100228000448AFF300800123237010BD0C000020A8
:1002380000000000001A000808B5044B1BB104496F
:100248000448AFF30080BDE80840CFE70000000095
:1002580010000020001A000870B50D4E0D4D761BD9
:10026800B61006D0002455F8043B01349847A6423E
:10027800F9D1094E094D761B01F0BEFBB61006D028
:10028800002455F8043B01349847A642F9D170BDC3
:10029800281A0008281A00082C1A0008281A00082A
:1002A800830730B548D0541E002A3FD0CAB203464F
:1002B80001E0013C3AD303F8012B9D07F9D1032C47
:1002C8002DD9CDB245EA05250F2C45EA054536D985
:1002D800A4F1100222F00F0C03F1200EE6444FEABD
:1002E800121C03F1100242E9045542E9025510328A
:1002F8007245F8D10CF1010214F00C0F03EB021255
:1003080004F00F0C13D0ACF1040323F003030433FF
:10031800134442F8045B9342FBD10CF003042CB164
:10032800CAB21C4403F8012B9C42FBD130BD644681
:100338001346002CF4D1F9E703461446BFE71A46E2
:10034800A446E0E7F0B589B000240394049405942A
:10035800069407941E4BDA6C42F00102DA64DA6CF8
:1003680002F001020092009ADA6C42F00402DA64A8
:10037800DA6C02F004020192019ADA6C42F002028D
:10038800DA64DB6C03F002030293029B114F012233
:100398008021384601F00AFA0F4D012240212846F3
:1003A80001F004FA80230393012604960594069429
:1003B80003A9384601F00AF94023039304960594EB
:1003C800069403A9284601F001F909B0F0BD00BF61
:1003D80000100240000800480004004872B6FEE71A
:1003E80008B51048104B03604FF482734360002334
:1003F80083604FF4E062C26002220261012242611E
:100408004FF4007282611022C26103624362836208
:100418000722C2620363436300F0A9FA00B908BD6A
:10042800FFF7DCFF280000200030014010B594B031
:100438003822002106A8FFF733FF00240194029414
:100448000394049405944FF4007001F0B5F9022365
:1004580006934FF48073099340230A930D9406A8DA
:1004680000F002FD68B90F230193012302930021D4
:1004780003910491059101A800F0ACFF18B914B0DC
:1004880010BDFFF7ABFFFFF7A9FF08B500F08AFC26
:10049800FFF7CCFFFFF756FFFFF7A2FF0A2000F097
:1004A800A3FC00F089F808B9FFF798FF012000F0D5
:1004B80079F814E00A2000F097FC00F0E2F8002830
:1004C800F8D04FF4FA7000F08FFC002000F0CEF85E
:1004D80000F0D7F840B14FF4FA7000F085FC4FF403
:1004E8007A3000F0C3F8E8E70A2000F07DFCEFE777
:1004F80030B587B014468DF810000B0E8DF811300A
:10050800C1F307438DF81230C1F307238DF8133078
:100518008DF81410002202928DF80C20134D8021C2
:10052800284601F043F94FF0FF330093052302AA50
:1005380004A90F4800F08FFA01228021284601F013
:1005480035F974B19DF809209DF80A301B0443EA77
:1005580002639DF80B2043EA02239DF80C20134305
:1005680023609DF8080007B030BD00BF00080048B0
:100578002800002008B5002240F08000FFF7B8FFEF
:1005880008BD30B583B005460024019422462146B3
:10059800FFF7AEFF01AA21462846FFF7A9FF0198F9
:1005A80003B030BD08B580F001024021014801F0D8
:1005B800FDF808BD0004004808B50420FFF7E1FF76
:1005C800000E302801D0002008BD07210120FFF7C8
:1005D800D1FF00210846FFF7CDFF21496C20FFF726
:1005E800C9FF80210B20FFF7C5FF1E491020FFF728
:1005F800C1FF0A211120FFF7BDFF00212320FFF7CB
:10060800B9FF4FF47A712420FFF7B4FF4CF2503150
:100618002520FFF7AFFF41F288312620FFF7AAFF18
:1006280011492720FFF7A6FF41F658312820FFF788
:10063800A1FF4FF4AF612A20FFF79CFF0A212B206E
:10064800FFF798FF00212020FFF794FF00212120C9
:10065800FFF790FF00212D20FFF78CFF0120B3E763
:10066800C300010008100600400D030010B5044641
:1006780000212020FFF77EFF21462D20FFF77AFF7B
:1006880010BD08B53520FFF77CFFC0F3402008BD3A
:10069800FEE7FEE7FEE7FEE7FEE7704770477047B4
:1006A80008B500F08FFB08BD00B583B00B4B1A6E80
:1006B80042F001021A661A6E02F001020092009AD4
:1006C8009A6D42F080529A659B6D03F080530193B6
:1006D800019B01F0F7F803B05DF804FB001002403D
:1006E80000B589B0002303930493059306930793F9
:1006F8000268134B9A4202D009B05DF804FB03F577
:1007080060431A6E42F480521A661A6E02F48052DE
:100718000192019ADA6C42F00102DA64DB6C03F0B0
:1007280001030293029BE02303930223049305230E
:10073800079303A94FF0904000F048FFDCE700BFA3
:10074800003001402DE9F04782B00546884617463B
:100758001E4600F043FB0A9B1B1A03EB060900F038
:100768003DFB82462B4B1B68C3F3CB3309FB03F3DA
:1007780001932B689C6838EA04030CBF4FF0010C06
:100788004FF0000CBC4540D0B6F1FF3FF1D000F06F
:1007980025FBA0EB0A00484506D2B9F1000F03D0AB
:1007A800019B73BB9946E4E72A68536823F0E0038A
:1007B80053606B68B3F5827F0BD0AB6AB3F5005F0B
:1007C80014D0012385F85D30002385F85C300320C0
:1007D8001CE0AB68B3F5004F02D0B3F5806FECD1E5
:1007E8002A68136823F040031360E6E72A68136851
:1007F80023F4005313602A68136843F4005313600A
:10080800DFE7019B013B0193B3E7002002B0BDE89D
:10081800F08700BF080000202DE9F04782B00646A7
:100828000C4615461F4600238DF8033000F0D6FA13
:100838000A9B1B1A03EB070800F0D0FA8146D6F88A
:1008480000A0314B1B6803EB8303C3EBC3031B0DF1
:1008580008FB03F3019302E0B7F1FF3F12D13368BD
:100868009B6803EA040CAC454AD0B4F5C06FF3D1D9
:10087800002DF1D19AF80C30DBB28DF803309DF8D9
:100888000330E9E700F0AAFAA0EB0900404506D2D8
:10089800B8F1000F03D0019B73BB9846DFE73268BD
:1008A800536823F0E00353607368B3F5827F0BD07D
:1008B800B36AB3F5005F14D0012386F85D300023D6
:1008C80086F85C3003201CE0B368B3F5004F02D013
:1008D800B3F5806FECD13268136823F040031360DE
:1008E800E6E73268136823F400531360326813682C
:1008F80043F400531360DFE7019B013B0193AEE72C
:10090800002002B0BDE8F0870800002070B582B072
:1009180004460D46164600920B4600224FF4C0517D
:10092800FFF77AFFB0B900962B46002280212046B7
:10093800FFF708FFA8B900962B4600224FF4C061C4
:100948002046FFF769FF50B1236E43F0200323666A
:10095800032004E0236E43F020032366032002B043
:1009680070BD236E43F0200323660320F7E70028B9
:100978006FD010B50446436A33B94368B3F5827F34
:1009880005D00023C36102E0002303614361002313
:10099800A36294F85D30002B52D0022384F85D30B6
:1009A8002268136823F040031360E368B3F5E06F2F
:1009B8004CD90022B3F5706F04D0B3F5E06F01D0C5
:1009C8000023A362636803F48273A16801F40441FD
:1009D8000B43216901F002010B43616901F0010138
:1009E8000B43A16901F400710B43E16901F038017F
:1009F8000B43216A01F080010B43A16A01F4005105
:100A080020680B430360638B03F00403616A01F001
:100A180010010B43616B01F008010B43E16801F41D
:100A280070610B43216813434B602268D36923F438
:100A38000063D36100202066012384F85D3010BD77
:100A480084F85C302046FFF74BFEA6E74FF480524F
:100A5800B0E7012070472DE9F843044688469146DF
:100A68001F46089D00F0BAF9064694F85D30DBB2DF
:100A78006268012B0AD0B2F5827F40F05C81A268DF
:100A8800002A40F05B81042B40F05A81B8F1000F36
:100A980000F05881B9F1000F00F05681002F00F0E6
:100AA800558194F85C30012B00F05281012384F8C1
:100AB8005C3094F85D30DBB2042B02D0052384F857
:100AC8005D3000232366C4F84090A4F84670A4F86B
:100AD8004470C4F83880E787A787E3642365E36830
:100AE800B3F5E06F01D8012F23D92268536823F4A6
:100AF8008053536023681A6812F0400F03D11A68B4
:100B080042F040021A60E368B3F5E06F5FD96368AA
:100B18000BB1012F0BD1A26B23681288DA60A36B8B
:100B28000233A363E38F9BB2013B9BB2E3870127A8
:100B380030E02268536843F480535360DAE7A26BCD
:100B48001288DA60A36B0233A363E38F9BB2013B85
:100B58009BB2E387002723689A6812F0010F11D02F
:100B6800B4F8462092B26AB1DA68236C1A80236C12
:100B780002332364B4F846309BB2013B9BB2A4F81D
:100B88004630012700F02AF9831BAB4202D3B5F1A6
:100B9800FF3F14D1E38F9BB22BB9B4F846309BB218
:100BA800002B00F0B18023689A6812F0020FD2D0AF
:100BB800E28F92B2002ACED0002FCCD0BFE701231B
:100BC80084F85D30002384F85C300320B4E0636867
:100BD8000BB1012F0FD1E38F9BB2012B0DD9A26B63
:100BE80023681288DA60A36B0233A363E38F9BB296
:100BF800023B9BB2E387012749E0A26B2368127886
:100C08001A73A36B0133A363E38F9BB2013B9BB2BF
:100C1800E387F0E7E28F92B2012A0CD9A26B12881F
:100C2800DA60A36B0233A363E38F9BB2023B9BB2F0
:100C3800E38700273DE0A26B12781A73A36B013398
:100C4800A363E38F9BB2013B9BB2E387002730E0AD
:100C58002268536843F48053536001270DE0226CE7
:100C68001B7B1370236C01332364B4F846309BB2AA
:100C7800013B9BB2A4F84630012700F0AFF8801B77
:100C8800A84202D3B5F1FF3F36D1002D34D0E38F0F
:100C98009BB223B9B4F846309BB2002B34D02368FA
:100CA8009A6812F0020F04D0E28F92B20AB1002FB4
:100CB800B0D123689A6812F0010FDED0B4F846204C
:100CC80092B2002AD9D0B4F8462092B2012AC6D9E5
:100CD800DA68236C1A80236C02332364B4F8463034
:100CE8009BB2023B9BB2A4F84630B4F846309BB2A4
:100CF800012BADD90127C0E7012384F85D3000231B
:100D080084F85C30032017E0324629462046FFF776
:100D1800FDFD48B9012384F85D30002384F85C3078
:100D2800236E4BB1012007E020232366002384F8BB
:100D38005C30012000E00220BDE8F8830220FBE7D8
:100D48000220F9E70120F7E70120F5E70120F3E7A2
:100D58000220F1E7104B1B680BB90120704710B552
:100D680004464FF47A70B0FBF3F30C4A1068B0FBFA
:100D7800F3F000F0F9FD68B90F2C01D901200AE061
:100D8800002221464FF0FF3000F0B6FD044B1C60F6
:100D9800002000E0012010BD000000200800002015
:100DA8000400002010B5032000F094FD0F20FFF789
:100DB800D1FF10B10124204610BD0446FFF774FC92
:100DC800F9E70000034A1368034909680B441360F4
:100DD800704700BF8C00002000000020014B1868FD
:100DE800704700BF8C00002038B50446FFF7F6FFB7
:100DF8000546B4F1FF3F02D0044B1B681C44FFF7C3
:100E0800EDFF401BA042FAD338BD00BF0000002010
:100E1800124BDA6802F00302D868C0F30310431CCF
:100E2800032A11D00E48B0FBF3F00C4BDB68C3F378
:100E3800062303FB00F0094BDB68C3F3416301336E
:100E48005B00B0FBF3F070470648B0FBF3F0034BD0
:100E5800DB68C3F3062303FB00F0ECE70010024055
:100E68000024F40000127A00002800F04F8270B5C8
:100E780082B00446036813F0010F37D0A44A936880
:100E880003F00C03D26802F003020C2B23D0082BCA
:100E980023D06368B3F5803F4ED0B3F5A02F51D06F
:100EA8009B4B1A6822F480321A601A6822F4802256
:100EB8001A606368002B52D0FFF790FF0546944BE9
:100EC8001B6813F4003F11D1FFF788FF401B64280B
:100ED800F5D9032023E2032AD9D18D4B1B6813F4DB
:100EE800003F03D06368002B00F01282236813F0E0
:100EF800020F5DD0864A936803F00C03D26802F0B3
:100F080003020C2B3AD0042B3AD0E368002B75D09F
:100F18007F4A136843F480731360FFF75FFF054649
:100F28007B4B1B6813F4806F5FD1FFF757FF401BA3
:100F38000228F5D90320F2E1754A136843F4803397
:100F48001360B6E703F18043A3F53C331A6842F413
:100F580080221A601A6842F480321A60A9E7FFF703
:100F68003DFF05466A4B1B6813F4003FBED0FFF7F0
:100F780035FF401B6428F5D90320D0E1022AC2D1ED
:100F8800634B1B6813F4806F03D0E368002B00F0F9
:100F9800C1815F4A536823F0FE43216943EA016334
:100FA80053605C4B1868FFF7D5FE002840F0B48109
:100FB800236813F0080F4CD063699BB3544AD2F8E6
:100FC800943043F00103C2F89430FFF707FF054659
:100FD8004F4BD3F8943013F0020F3AD1FFF7FEFECF
:100FE800401B0228F4D9032099E1494A536823F0A9
:100FF800FE43216943EA01635360D9E7444A136811
:1010080023F480731360FFF7E9FE0546404B1B6825
:1010180013F4806FCCD0FFF7E1FE401B0228F5D90E
:1010280003207CE13A4AD2F8943023F00103C2F855
:101038009430FFF7D3FE0546354BD3F8943013F0C0
:10104800020F06D0FFF7CAFE401B0228F4D903207E
:1010580065E1236813F0040F00F081802C4B9B6D31
:1010680013F0805F36D12A4B9A6D42F080529A6510
:101078009B6D03F080530193019B0125264B1B6850
:1010880013F4807F28D0A368012B39D0052B45D0D5
:101098001F4BD3F8902022F00102C3F89020D3F818
:1010A800902022F00402C3F89020A368002B43D0BC
:1010B800FFF794FE0646164BD3F8903013F0020F54
:1010C8004CD1FFF78BFE801B41F288339842F2D94E
:1010D800032024E10025D1E70F4A136843F4807305
:1010E8001360FFF77BFE06460B4B1B6813F4807FEB
:1010F800C9D1FFF773FE801B0228F5D903200EE142
:10110800034AD2F8903043F00103C2F89030CCE79C
:10111800001002400400002000700040884BD3F803
:10112800902042F00402C3F89020D3F8902042F0B7
:101138000102C3F89020B8E7FFF750FE0646804B3F
:10114800D3F8903013F0020F08D0FFF747FE801B4A
:1011580041F288339842F2D90320E0E0E5B92368E8
:1011680013F0200F35D0A369E3B1754AD2F898304F
:1011780043F00103C2F89830FFF730FE0546704B84
:10118800D3F8983013F0020F23D1FFF727FE401B46
:101198000228F4D90320C2E0694A936D23F08053F2
:1011A8009365DCE7664AD2F8983023F00103C2F869
:1011B8009830FFF713FE0546614BD3F8983013F0CB
:1011C800020F06D0FFF70AFE401B0228F4D90320BD
:1011D800A5E0E369002B00F0A180594A926802F06B
:1011E8000C020C2A64D0022B13D0554A136823F042
:1011F80080731360FFF7F2FD0446514B1B6813F030
:10120800007F4ED0FFF7EAFD001B0228F5D9032026
:1012180085E04B4A136823F080731360FFF7DEFD07
:101228000546474B1B6813F0007F06D0FFF7D6FD35
:10123800401B0228F5D9032071E0414AD36841498F
:101248001940236A606A013843EA0013A06A43EA36
:101258000023206B4008013843EA4053606B400884
:10126800013843EA4063E06A43EAC0630B43D36052
:10127800136843F080731360D36843F08073D360BE
:10128800FFF7ACFD04462E4B1B6813F0007F06D118
:10129800FFF7A4FD001B0228F5D903203FE000203A
:1012A8003DE0274AD168284B0B40D360002036E048
:1012B800012B36D0224BDB6803F00301226A9142EE
:1012C80031D103F0F002616A0139B2EB011F2CD170
:1012D80003F4FE42A16AB2EB012F28D103F0784251
:1012E800E16AB2EBC16F24D103F4C001226B52084A
:1012F800013AB1EB425F1ED103F0C063626B520842
:10130800013AB3EB426F18D1002008E00120704782
:10131800012004E0012002E0012000E0002002B0EA
:1013280070BD0120FBE70120F9E70120F7E7012064
:10133800F5E70120F3E70120F1E70120EFE700BF1F
:10134800001002400C809F01FCFFEEFE1E4B9B68C4
:1013580003F00C03042B33D01B4B9B6803F00C03E6
:10136800082B2FD0184B9B6803F00C030C2B01D0D3
:1013780000207047144BDA6802F00302D868C0F303
:101388000310431C032A11D01048B0FBF3F00E4B96
:10139800DB68C3F3062303FB00F00B4BDB68C3F3E6
:1013A800416301335B00B0FBF3F070470848B0FBC2
:1013B800F3F0054BDB68C3F3062303FB00F0ECE70F
:1013C8000248704702487047001002400024F400A9
:1013D80000127A00002800F0E680F8B50C460546B1
:1013E800744B1B6803F00F038B420BD2714A1368CE
:1013F80023F00F030B431360136803F00F038B42B2
:1014080040F0D3802E6816F001065FD06B68032B7E
:101418002FD0022B4DD0684B1B6813F4806F00F05F
:10142800C680FFF793FF654B98424DD9624A93688F
:1014380023F0F00343F08003936080265E4A9368AC
:1014480023F0030369680B439360FFF7C7FC074663
:10145800594B9B6803F00C036A68B3EB820F35D0D5
:10146800FFF7BCFCC01B41F288339842F0D9032037
:1014780078E0514B1B6813F0007F01D1012071E027
:10148800FFF7C6FC4D4B98421AD94B4B9B6813F09B
:10149800F00F05D02E6816F00206CFD0AB688BB9D6
:1014A800454A936823F0F00343F080039360802655
:1014B800C4E7414B1B6813F4003FB2D1012051E04F
:1014C8000026BBE70026B9E70026B7E72B6813F02C
:1014D800020F48D013F0040F04D0374A936843F43E
:1014E800E06393602B6813F0080F06D0324A9368C4
:1014F80023F47C5343F4E06393602F4A936823F00A
:10150800F003A9680B4393602A4B1B6803F00F0391
:10151800A34230D82B6813F0040F06D0264A9368EC
:1015280023F4E063E9680B4393602B6813F0080F1A
:1015380007D0214A936823F46053296943EAC10319
:101548009360FFF703FF1C4B9B68C3F303131C4A0C
:10155800D35C03F01F03D8401A4B18601A4B186865
:10156800FFF7F8FBF8BD802ECED1134A936823F01D
:10157800F0039360C8E70F4A136823F00F0323436F
:101588001360FFF72BFC06460A4B1B6803F00F039A
:10159800A342BFD0FFF722FC801B41F28833984258
:1015A800F2D90320DEE7012070470120DAE70120A5
:1015B800D8E700BF002002400010024000B4C40475
:1015C800181A00080800002004000020F0B583B0B5
:1015D800002366E085685E000324B44025EA04051C
:1015E800CC68B4402C438460446824EA0C0C4C68F2
:1015F800C4F300149C4044EA0C04446062E08C6824
:10160800012C64D172E0DD08083550F8256003F03C
:1016180007044FEA840C0F2404FA0CF426EA040E9B
:101628000C6904FA0CF444EA0E0440F8254062E020
:10163800052400E0002404FA0EF42C430CF1020CFB
:10164800564D45F82C40564CA568D44325EA020669
:101658004F6817F4801F01D042EA0506504DAE606E
:10166800ED6804EA05064F6817F4001F01D042EA46
:1016780005064B4DEE606D6804EA05064F6817F4E1
:10168800003F01D042EA0506454D6E602D682C40AA
:101698004E6816F4803F01D042EA0504404A1460BF
:1016A80001330A6832FA03F476D04FF0010C0CFAD1
:1016B80003FC1CEA0202F3D04C6804F00304013C6A
:1016C800012C87D94C6804F00304032C97D0C46814
:1016D8004FEA430E4FF0030C0CFA0EFC24EA0C0CF4
:1016E8008C6804FA0EF444EA0C04C4604C6804F0F4
:1016F8000304022C87D004684FEA430E4FF0030C12
:101708000CFA0EFC24EA0C0C4C6804F0030404FAEE
:101718000EF444EA0C0404604C6814F4403FBFD053
:10172800204C256E45F001052566246E04F0010461
:101738000194019C4FEA930C0CF10205174C54F8E4
:10174800255003F003044FEA840E0F2404FA0EF424
:1017580025EA0405B0F1904F3FF46CAF124CA0425B
:1017680012D004F58064A04210D004F58064A04231
:101778000ED004F58064A0420CD004F58064A04229
:101788003FF456AF062456E7012454E7022452E7F3
:10179800032450E704244EE703B0F0BD00000140E5
:1017A8000004014000100240000400480AB18161B1
:1017B8007047816270470000002836D13E4B1B6895
:1017C80003F4C063B3F5806F08D03B4AD2F8803089
:1017D80023F48073C2F8803000207047364AD2F86C
:1017E800803023F48073C2F88030136823F4C06318
:1017F80043F400731360314B1B68322202FB03F37E
:101808002F4AA2FB03239B0C013300E0013B2A4A29
:10181800526912F4806F01D0002BF7D1264B5B6917
:1018280013F4806F44D100207047B0F5007F08D0D2
:10183800214A136823F4C06343F4806313600020D3
:1018480070471D4B1B6803F4C063B3F5806F08D065
:10185800194AD2F8803043F48073C2F880300020EF
:101868007047154AD2F8803043F48073C2F880304C
:10187800136823F4C06343F4007313600F4B1B68B1
:10188800322202FB03F30E4AA2FB03239B0C013313
:1018980000E0013B084A526912F4806F01D0002B26
:1018A800F7D1054B5B6913F4806F03D100207047B3
:1018B8000320704703207047007000400800002094
:1018C80083DE1B43024A936843F480439360704766
:1018D80000700040074AD36823F4E0631B041B0C24
:1018E800000200F4E060034343F0BF6343F40033B5
:1018F800D360704700ED00E000B5194BDB68C3F317
:101908000223C3F1070CBCF1040F28BF4FF0040CED
:1019180003F1040EBEF1060F18D9033B4FF0FF3E4A
:101928000EFA0CFC21EA0C0199400EFA03F322EAA4
:101938000303194300280BDB0901C9B200F1604019
:1019480000F5614080F800135DF804FB0023E5E72B
:1019580000F00F000901C9B2024B1954F4E700BFA7
:1019680000ED00E014ED00E00138B0F1807F0BD20B
:101978004FF0E0235861054AF02182F82310002037
:10198800986107221A6170470120704700ED00E056
:10199800034AD2F8883043F47003C2F8883070479D
:1019A80000ED00E00D488546FFF7F2FF0C480D49B1
:1019B8000D4A002302E0D458C4500433C4188C42A2
:1019C800F9D30A4A0A4C002301E013600432A24208
:1019D800FBD3FEF741FCFEF758FDFEE700000220AE
:1019E800000000200C000020301A00080C00002025
:1019F80090000020FEE70000F8B500BFF8BC08BC66
:101A08009E467047F8B500BFF8BC08BC9E467047B4
:101A18000000000000000000010203040607080996
:041A2800410200086F
:041A2C001902000893
:0C1A300001000000100000000024F40081
:04000005080019AD29
:00000001FF
